:020000040800F2
:1000000000800120DD0100082D0200082D020008FB
:100010002D0200082D0200082D020008000000003B
:100020000000000000000000000000002D02000899
:100030002D020008000000002D0200082D0200081B
:10004000000000002D0200082D0200082D0200080B
:100050002D0200082D0200082D0200082D020008C4
:100060002D0200082D0200082D0200082D020008B4
:100070002D0200082D0200082D0200082D020008A4
:100080002D0200082D0200082D02000800000000CB
:100090000000000000000000000000002D02000829
:1000A0002D0200082D0200082D0200082D02000874
:1000B0002D0200082D0200082D0200082D02000864
:1000C0002D0200082D0200082D0200082D02000854
:1000D0002D0200082D0200082D020008000000007B
:1000E0002D0200082D0200082D020008000000006B
:1000F0000000000000000000000000002D020008C9
:10010000000000002D0200082D0200082D0200084A
:1001100000000000000000000000000000000000DF
:100120002D0200082D0200082D0200082D020008F3
:100130002D02000800000000000000000000000088
:100140000000000000000000000000002D02000878
:100150002D0200082D0200082D0200082D020008C3
:100160002D0200082D020008000000000000000021
:10017000000000000000000000000000000000007F
:10018000000000000000000000000000000000006F
:040190002D02000834
:1001940010B5054C237833B9044B13B10448AFF3BD
:1001A40000800123237010BD000000200000000027
:1001B4007802000808B5034B1BB103490348AFF3A9
:1001C400008008BD00000000040000207802000840
:1001D40080B400AFFEE700000D488546AFF3008011
:1001E4000C480D490D4A002302E0D458C45004338E
:1001F400C4188C42F9D30A4A0A4C002301E0136064
:100204000432A242FBD300F011F8FFF7E1FFFEE74E
:100214000080012000000020000000209802000857
:10022400000000201C000020FEE7000070B50D4D0A
:100234000D4C641BA4100026A64209D10B4D0C4C96
:1002440000F018F8641BA4100026A64205D170BD66
:1002540055F8043B98470136EEE755F8043B9847B8
:100264000136F2E7900200089002000890020008AC
:1002740094020008F8B500BFF8BC08BC9E4670475D
:0C028400F8B500BFF8BC08BC9E467047EF
:04029000B9010008A8
:0402940095010008C8
:04000005080001DD11
:00000001FF
