:020000040800F2
:1000000070060020350200081D03000815030008D3
:1000100019030008F1020008410300080000000075
:1000200000000000000000000000000025030008A0
:10003000F502000800000000210300082903000861
:100040004F0200084F0200084F0200084F0200084C
:100050004F0200084F0200084F0200084F0200083C
:100060004F0200084F0200084F0200084F0200082C
:100070004F0200084F0200084F0200084F0200081C
:100080004F0200084F0200084F0200080000000065
:100090000000000000000000000000004F02000807
:1000A0004F0200084F0200084F0200084F020008EC
:1000B0004F0200084F0200084F0200084F020008DC
:1000C0004F0200084F0200084F0200084F020008CC
:1000D0004F0200084F0200084F0200080000000015
:1000E0004F0200084F0200084F0200080000000005
:1000F0000000000000000000000000004F020008A7
:10010000000000004F0200084F0200084F020008E4
:1001100000000000000000000000000000000000DF
:100120004F0200084F0200084F0200084F0200086B
:100130004F02000800000000000000000000000066
:100140000000000000000000000000004F02000856
:100150004F0200084F0200084F0200084F0200083B
:100160004F0200084F0200080000000000000000DD
:10017000000000000000000000000000000000007F
:10018000000000004F020008000000000000000016
:100190004F02000800F002F800F03CF80AA090E8D6
:1001A000000C82448344AAF10107DA4501D100F032
:1001B00031F8AFF2090EBAE80F0013F0010F18BFC3
:1001C000FB1A43F001031847A0010000C001000022
:1001D000103A24BF78C878C1FAD8520724BF30C873
:1001E00030C144BF04680C60704700000023002445
:1001F00000250026103A28BF78C1FBD8520728BF37
:1002000030C148BF0B6070471FB500F0A0F81FBD9C
:1002100010B510BD00F031F81146FFF7F5FF00F002
:1002200091F800F04FF803B4FFF7F2FF03BC00F0C1
:1002300057F800000948804709480047FEE7FEE7F5
:10024000FEE7FEE7FEE7FEE7FEE7FEE7FEE7FEE786
:1002500004480549054A064B704700002D03000875
:100260009501000870000020700600207002002038
:1002700070020020704770477047754600F02CF8F8
:10028000AE4605006946534620F00700854618B083
:1002900020B5FFF7DDFFBDE820404FF000064FF02E
:1002A00000074FF000084FF0000BAC46ACE8C00967
:1002B000ACE8C009ACE8C009ACE8C00921F007010E
:1002C0008D46704710B50446AFF300802046BDE868
:1002D0001040FFF7A8BF000000487047080000204A
:1002E00001491820ABBEFEE726000200704700005F
:1002F000FEE700007047000040F2000040F2680195
:10030000C2F20000C2F2000100780A6810440860DE
:1003100070470000FEE70000FEE70000FEE7000077
:100320007047000070470000FFF7E6BF4EF68850A8
:10033000CEF20000016841F47001016070470000D6
:10034000FEE700001020004611200046FEE7F1EE17
:10035000100A4FF6FF71C0F2C03120EA010040F0F0
:100360004070E1EE100A704788030008000000208A
:1003700008000000D00100089003000808000020D9
:1003800068060000EC0100080100000010000000F9
:040000050800019559
:00000001FF
