:020000040800F2
:100000007807002045020008A50D00089D0D000896
:10001000A10D0008790D0008E90D0008000000009E
:10002000000000000000000000000000CD0D0008EE
:100030007D0D000800000000A90D0008D10D00088A
:100040005F0200085F0200085F020008AD0D0008B3
:100050005F0200085F0200085F0200085F020008FC
:100060005F0200085F0200085F0200085F020008EC
:100070005F0200085F0200085F0200085F020008DC
:100080005F0200085F0200085F0200080000000035
:100090000000000000000000000000005F020008F7
:1000A0005F0200085F0200085F0200085F020008AC
:1000B0005F0200085F0200085F0200085F0200089C
:1000C0005F0200085F0200085F0200085F0200088C
:1000D0005F0200085F0200085F02000800000000E5
:1000E0005F0200085F0200085F02000800000000D5
:1000F0000000000000000000000000005F02000897
:10010000000000005F0200085F0200085F020008B4
:1001100000000000000000000000000000000000DF
:100120005F0200085F0200085F0200085F0200082B
:100130005F02000800000000000000000000000056
:100140000000000000000000000000005F02000846
:100150005F0200085F0200085F0200085F020008FB
:100160005F0200085F0200080000000000000000BD
:10017000000000000000000000000000000000007F
:10018000000000005F020008000000000000000006
:100190005F02000800F002F800F044F80AA090E8BE
:1001A000000C82448344AAF10107DA4501D100F032
:1001B00039F8AFF2090EBAE80F0013F0010F18BFBB
:1001C000FB1A43F001031847D40C0000F40C0000A4
:1001D000103A24BF78C878C1FAD8520724BF30C873
:1001E00030C144BF04680C60704700000023002445
:1001F00000250026103A28BF78C1FBD8520728BF37
:1002000030C148BF0B6070471FB500F033FE9DE85A
:10021000030000F02BFC00F03FF91FBD10B500F00B
:10022000A4F910BD00F007FA1146FFF7EDFF00F04A
:10023000DDFD00F0C1FB03B4FFF7F0FF03BC00F0ED
:1002400007FD00000948804709480047FEE7FEE730
:10025000FEE7FEE7FEE7FEE7FEE7FEE7FEE7FEE776
:1002600004480549054A064B70470000D50D0008B3
:10027000950100087801002078070020780300200D
:100280007803002010B5044603E000F0E5FD401CB3
:1002900009D014F8010B05490028F6D1BDE810403B
:1002A0000A2000F0D9BD4FF0FF3010BD6C000020D7
:1002B0007047704770472DE9F05F054617460C46BA
:1002C000C86820F4201040F48000C860800602D581
:1002D000084600F0B2FAE06841F282014FF0FF3ABE
:1002E0000140022903D0204600F044FAB9E000F4AE
:1002F0002041B1F5004F0FD1C00306D56168E06A17
:10030000884200D80846606006E02069E0626060CC
:10031000606900F08AF9A061A0680022EEB20028AE
:100320000DDAE1688B050AD4C043A06041F4903037
:100330002260E0606068411C61600670AAE0E068CD
:100340009146226040F40050E060206978BB60690B
:1003500000F05DF904F124054FF00108A8B1A0896F
:1003600010F4407F08D0E06900F08AF9206118B1EC
:10037000E06840F4006017E0C4F81C802561E06884
:1003800020F4407040F480600EE0E06900F078F9FD
:1003900000282061F0D0E06840F4006010F4407F55
:1003A000E06002D140F48070E06020696060E06845
:1003B00025696FF0010BC1051ED56168E06A8842AE
:1003C00000D80846411B04D02246284600F0DCF93C
:1003D000E8BB1FB1E562C4E9015959E0681CE0625D
:1003E0006060E069401EA060E06840F48030E0603A
:1003F00030462E70BDE8F09F17B100F480320AE05D
:100400006068411C61600670E0680A2E40F480302C
:10041000E06006D00022E16A6068814203D90B46A1
:1004200002E00122F7E70346B4F80CC05B1B5FEA69
:100430004C5C04D4D4F81CC09C4500DD02B381425E
:1004400000D80146002BA1EB0008E56200E008E0BF
:10045000C4E9015907DD22461946284600F094F9FF
:1004600008B15046C6E7B8F1000F09D0A169E562AE
:100470006560A1EB0800A061E06840F01000E0605A
:1004800047B16168A069E562491B08446560A061E5
:100490005846AFE73046ADE710B54248542100F06A
:1004A0009BFA4148542100F097FA4048542100F04B
:1004B00093FA3F493B483C4A3F4B08603D490A603C
:1004C0003A491960531C0365481C106501200865F2
:1004D0003B48344A39A1784400F0D0F920B9384873
:1004E00078440A3800F071FA37482F4A35A1784429
:1004F00000F0C4F920B9344878440A3800F065FAAD
:1005000032482A4A2FA1784400F0B8F920B92F4880
:1005100078440A3800F059FA40232248DC000021D0
:10052000224600F003F920B125487844543800F001
:100530004CFA1D4822464023002100F0F7F820B174
:1005400021487844543800F040FA184822461023D5
:10055000002100F0EBF8002806D01C487844BDE8E4
:100560001040563800F031BA10BD104870B5006D1B
:1005700020F001040B4800F0F9F90B4800F0F6F9FF
:100580000A4800F0F3F909E0206D20F0010520464B
:1005900000F0ECF9204600F0A2F82C46002CF3D134
:1005A00070BD0000180000206C000020C00000207A
:1005B000000000200400002008000020720000005D
:1005C000B409000077000000A00900008C090000B9
:1005D0000EB5CDE9000100F01BFB02906946012039
:1005E000ABBE0EBD08B5694600900220ABBE08BD8B
:1005F0001FB58DE8070069460520ABBE04B010BDED
:100600001FB58DE80F0069460620ABBEF6E708B5BA
:10061000694600900920ABBE08BD1CB5CDE90001BC
:1006200069460A20ABBE1CBD704708B569460090FC
:100630000C20ABBE08BD754600F0F6F9AE460500CD
:100640006946534620F00700854618B020B5FFF7ED
:1006500007FEBDE820404FF000064FF000074FF0C6
:1006600000084FF0000BAC46ACE8C009ACE8C0098C
:10067000ACE8C009ACE8C00921F007018D4670471D
:1006800070B5064600F0D6F9056806F10B0020F0BB
:100690000704B4429CBF002070BD2B466A68BAB103
:1006A0001068A04210D304F1080188423CBF506892
:1006B000586007D35168101941601168091B016027
:1006C00058601460101D70BD13465268002AE7D1AF
:1006D0002146284600F0B6F90028DED170BD70B57D
:1006E0000446051F00F0A6F90068002C14BF4468FA
:1006F00070BD002C18BFAC423CBF20466468F8D3E4
:1007000001680A18AA4218BF456003D12A68054645
:100710001144016028684119A1421CBF6C6070BD82
:100720006168696021680844286070BD70B5C4685C
:10073000A50713D0650211D4B2F5807F09D0B2F5B8
:10074000007F06D0B2F5806F08D1012300F12401AB
:1007500006E05D1E6FF07F46B54201D3012070BDFB
:100760000161C361416024F470611143C1600020E4
:1007700070BD0000C16821F4001141F08001C1602A
:1007800000218160016070472DE9F74F15460C4646
:100790004FF0FF3B3848D768D2F814A0074209D081
:1007A0005046A969FFF739FF002819DB3248C043DA
:1007B0000740EF604FF000496FF000484C4501D30F
:1007C000464600E0264600993B4650463246FFF733
:1007D0000FFFA96920F00042B21A1144A96128B1A3
:1007E0002846FFF7C7FF5846BDE8FE8FA41BE5D19A
:1007F0000020F9E770B504460569C06A616888425F
:1008000000D80846E16821F42011E160C90312D53F
:10081000A84208D02246411B2846FFF7B5FF10B179
:100820004FF0FF3070BD0020E562C4E90150E06880
:1008300020F48030E060002070BD10B50446C06830
:1008400020F02000E060A16AA06988420DD0204617
:10085000FFF7D0FFE06820F4405040F01000E06067
:10086000A06AA0612069E062606044F24001E06833
:100870008843E06010BD0000100002002DE9F04147
:100880000C461646070047D0104600F06FF8207857
:10089000611C61280AD0722802D077283CD102E07E
:1008A0000125002405E00225042402E0082448F282
:1008B000020511F8010B2B2806D0622809D011F887
:1008C000010C74280AD00BE045F0030544F0020443
:1008D000EFE745F0040544F00104EAE744F01004B2
:1008E00038462146FFF774FE411C15D000213161C6
:1008F00071604FF40071F560F1617061200704D5FB
:1009000030460222002100F0E7F8306D40F001008F
:1009100030653046BDE8F0810020FBE72DE9F0416D
:100920000D460646104C206DC10704D0410804D086
:1009300020F00104F7E722460EE05420FFF7A0FE66
:1009400007000ED0206D47F00101084354212065B7
:10095000384600F041F83A4629463046BDE8F041B5
:100960008CE70020D6E70000180000202DE9F047B2
:1009700004464FF0FF380026C568D4E90497A8075D
:1009800018D02046FFF736FF3846FFF72BFE002829
:1009900000DA4646280502D54846FFF7A0FE4C215E
:1009A000204600F019F8206D20F001002065304647
:1009B000BDE8F0874046FBE710B50446AFF3008082
:1009C0002046BDE81040FFF736BC10B500F006F930
:1009D000BDE8104000F0FCB84FF0000200B513462F
:1009E00094469646203922BFA0E80C50A0E80C504F
:1009F000B1F12001BFF4F7AF090728BFA0E80C5000
:100A000048BF0CC05DF804EB890028BF40F8042BF8
:100A100008BF704748BF20F8022B11F0804F18BF65
:100A200000F8012B704700000048704714010020B7
:100A300070470000004870471C0100207047704755
:100A40007047704738B504460A4600206946AFF340
:100A50000080002808BF38BD02460099204600F0FB
:100A6000FDF8012038BD012000F04CB9F8B5AFF316
:100A70000080054600200C46102000BF0646A8193D
:100A8000A0420DD9324669460020AFF3008007002E
:100A900008BF00F037F90098A04218BF0546C419F6
:100AA000FFF7C8FF05600746F01D20F00700461954
:100AB000284600F00AF8B44208BFF8BDA21B314630
:100AC0003868BDE8F84000F0C9B800210160C0E90D
:100AD00001107047102070472DE9F041044616467A
:100AE0000D464769007B80072ED03846FFF78FFD03
:100AF00050BB3EB3012E02D0022E25D104E0204689
:100B000000F0C6F805441DE03846FFF78EFDE168A9
:100B1000002841F01001E16005DA2046FFF72AFEC7
:100B20000120BDE8F081C9030BD56268E16A9142FA
:100B300000D81146A26911442269891A814200DD58
:100B400008460544002D01DA0220EAE7E16A606800
:100B5000E268814206D29103E06203D522F40031BB
:100B600041F01002A6690027AE4213DCE16A81421F
:100B700001D90B4600E0034603EB060C2369ACEBFE
:100B8000030CAC4506DD814201D98C4600E0844669
:100B90009C4505D1A760276042F02000A5620DE0CA
:100BA000AD1BE669AE1B8142A66000D90846C01A9B
:100BB000281A20605819606022F02000034908407C
:100BC000E060002084F84870ABE70000BFCFD7FF9B
:100BD000002801D000F03CB87047000010B5014675
:100BE00002A000F076F8012010BD000053494752E2
:100BF000545245443A2052656469726563743A20E0
:100C000063616E2774206F70656E3A2000000000EB
:100C100010B5431C02E010F8011B71B18107FAD135
:100C20004FF0013202C88C1A8C4314EAC211F9D079
:100C3000C01A0A0603D0C01E10BDC01A10BD0A0497
:100C400001D0801E10BD0902FCD0401E10BD000066
:100C500001491820ABBEFEE72600020003464068AB
:100C60008C46002818BF88423CBF03464068F8D332
:100C700018681844884207D00CF1030020F00700E0
:100C8000001D411A521A0146081D0A60FFF727BDD0
:100C900010B50146C268900703D0900607D5886A50
:100CA0000AE000F03DF801210160881E10BD8B694B
:100CB000486818440B69C01A91F848301BB191F884
:100CC0004910401A10BD1103FCD50028FADD401E62
:100CD00010BD70B505460C460A2000E06D1C00F002
:100CE00018F835B128780028F8D102E0641C00F02B
:100CF00010F814B120780028F8D1BDE870400A201F
:100D000000F007B810B500F00FF8BDE81040FFF78D
:100D10005FBF08B569468DF800000320ABBE08BD73
:100D2000004870471401002010B5012805D00021AB
:100D300003A0FFF7CEFF012010BD09A1F8E70000D6
:100D400053494752544D454D3A204F7574206F66B4
:100D50002068656170206D656D6F7279000000001C
:100D60003A2048656170206D656D6F727920636F00
:100D70007272757074656400FEE7000070470000D1
:100D800040F20C0040F27411C2F20000C2F2000105
:100D900000780A681044086070470000FEE7000011
:100DA000FEE70000FEE700007047000001A0FFF72B
:100DB00069BA00BF496E2068616E646C6572206D0F
:100DC0006F6465203A2020495352000070470000AC
:100DD000FFF7D6BF4EF68850CEF20000016841F40E
:100DE0007001016070470000FEE7000009A0FFF7F6
:100DF00049FA4EF20010CEF20000016841F00801FD
:100E000001600321C0F8001E0BA0FFF73BFA00BFF2
:100E1000FEE700BF496E20546872656164206D6F03
:100E200064652C206265666F726520696E746572F8
:100E30007275707400000000496E2054687265611C
:100E400064206D6F64652C20616674657220696E24
:100E500074657272757074008A68002A02DC002260
:100E6000FFF729BA521E8A604A68C0B2531C4B6011
:100E700010707047F1EE100A4FF6FF71C0F2C031EA
:100E800020EA010040F04070E1EE100A70473A7429
:100E900074003A7474003A7474000000C00E0008C4
:100EA0000000002018000000D0010008D80E000843
:100EB0001800002060070000EC010008000000009E
:100EC0000000000000000000000000000100000021
:080ED00010000000000000000A
:040000050800019559
:00000001FF
